:020000040800F2
:10E00000885D0120A9E20008D12A0108751F0108D6
:10E01000CD2A0108710D0108436D010800000000C0
:10E02000000000000000000000000000595A010834
:10E030002F1001080000000031E30008ED65010821
:10E04000BFE20008A14F0108BFE20008BFE20008DC
:10E05000BFE20008BFE20008BFE20008BFE200081C
:10E06000BFE20008BFE20008BFE20008BFE200080C
:10E07000BFE20008BFE20008BFE20008BFE20008FC
:10E08000BFE20008BFE20008BFE20008BFE20008EC
:10E09000BFE20008BFE20008BFE20008BFE20008DC
:10E0A000BFE20008BFE20008BFE20008BFE20008CC
:10E0B0009966010815670108BFE20008BFE2000881
:10E0C000BFE20008BFE20008BFE20008BFE20008AC
:10E0D000BFE20008C5690108196A0108596A010808
:10E0E000BFE20008BFE20008BFE200080000000035
:10E0F0000000000000000000000000000000000020
:10E100000000000000000000BFE20008BFE20008BD
:10E1100071690108BFE20008B9670108BFE20008A1
:10E12000BFE20008BFE20008BFE20008BFE200084B
:10E13000BFE2000815120108B5180108BFE2000887
:10E14000BFE20008BFE20008BFE20008BFE200082B
:10E1500000F002F800F07EF80AA090E8000C82447B
:10E160008344AAF10107DA4501D100F073F8AFF258
:10E17000090EBAE80F0013F0010F18BFFB1A43F0A5
:10E1800001031847ECBA02000CBB02000A444FF02E
:10E19000000C10F8013B13F0070408BF10F8014B06
:10E1A0001D1108BF10F8015B641E05D010F8016B4B
:10E1B000641E01F8016BF9D113F0080F1EBF10F8AF
:10E1C000014BAD1C0C1B09D16D1E58BF01F801CBD2
:10E1D000FAD505E014F8016B01F8016B6D1EF9D555
:10E1E0009142D6D37047000000230024002500266A
:10E1F000103A28BF78C1FBD8520728BF30C148BFAA
:10E200000B607047662925F05183652925F04E8300
:10E21000642900F03B81752900F03881782900F0ED
:10E220007181732901F0BF80002070471FB500F095
:10E23000F4FB00F00DFE04000020002124F058F94A
:10E24000401C60600020002124F068F9E0601FBDE0
:10E2500010B510BD01F0ECFE1146FFF7E7FF1AF014
:10E2600021F902F035F903B4FFF7F2FF03BC09F01E
:10E2700025F800000B49D1F800C04A685CF8043B5F
:10E280001068184442F8040B8C4528BFA1F1DC0C3F
:10E290008A4228BFA1F1DC02C1F800C04A6020F028
:10E2A00000407047F056012008480047FEE7FEE7AF
:10E2B000FEE7FEE7FEE7FEE7FEE7FEE7FEE7FEE736
:10E2C00003480449044A054B7047000051E1000827
:10E2D00088570120885D0120885901208859012034
:10E2E000EFF3108072B6704780F310887047214CAE
:10E2F0004FF0FF0525604FF0000484F309881E4CA1
:10E300004FF0010525701D4C4FF08055256062B619
:10E31000FEE730B4194C4FF08055256030BC704793
:10E3200030B4164C4FF08055256030BC704700BFAC
:10E3300072B6EFF3098028B1203880E8F00F104959
:10E340000968086000B50F4880475DF804EB0E4887
:10E350000E490A7802700A480D490A68026010687E
:10E3600090E8F00F203080F309884EF0040E62B67A
:10E370007047000022ED00E0FA01002004ED00E00B
:10E380000002002081430108EF010020F00100207D
:10E39000080200207047000010B500F059FD001D74
:10E3A00010BD00BF4D4102000FB4044910B503AACF
:10E3B000029800F0FDFF10BC5DF814FB90010020F6
:10E3C0000FB41CB5084B06AA7B446946009005981B
:10E3D00000F0BFFF04460020694600F0CDFF204654
:10E3E0001CBC5DF814FB0000AD0F000070B50446C6
:10E3F00085690068C10601D5302600E02026C007E7
:10E4000007D070BDD4E9012130469047206A401CF6
:10E4100020626D1EF6D570BD70B504468569007822
:10E42000C00707D170BDD4E9012120209047206AA0
:10E43000401C20626D1EF6D570BD70B50C460546B9
:10E44000012A05D02878800600D5EA69002302E079
:10E45000012305E05B1C934202D2E05C0028F9D165
:10E46000A869E618C01AA861286A184428622846D4
:10E47000FFF7BCFF04E0D5E9012114F8010B904738
:10E48000B442F8D32846FFF7C7FF70BD2DE9F0412D
:10E490000646002410687529314616A510D0AFF342
:10E4A0000080002802DA404213A507E031688A079D
:10E4B00001D512A502E0490704D511A5012401E008
:10E4C000AFF3008000210A2206F1240709E0B0FB27
:10E4D000F2FCB0FBF2F302FB1C003030785418461B
:10E4E000491C0028F3D123462A463046BDE8F041B6
:10E4F00000F0C1BC000000002D0000002B00000057
:10E500002000000070B504460D4621461068AFF3A8
:10E5100000802188090502D50F4A7A4402E00E4A9C
:10E520007A440E32002104F1240305E000F00F06C6
:10E530000009965D5E54491C0028F7D1207800231D
:10E54000000704D5702D02D009B1022311322046F4
:10E55000BDE8704000F08FBC26B202002DE9F05FEC
:10E56000894604464FF0000ADFF874B1FB44C0F856
:10E5700020A02046E1688847002874D0252806D0CE
:10E58000D4E901219047206A401C2062F1E700266F
:10E590005F462046E16888472028054607DB312D85
:10E5A00005D2781910F8200C08B10643F1E7B0073E
:10E5B00001D526F00406C4F81CA00027C4F818A052
:10E5C0002A2D09D0284608F072FE38B304EB8708DC
:10E5D000303DC8F8185019E059F8041B204604EBE8
:10E5E00087029161E1688847012F054618D1E069EB
:10E5F000002820DA26F020061DE0D8F8180000EBED
:10E60000800005EB40003038C8F818002046E1686B
:10E610008847054608F04BFE0028EED1012F0AD0AE
:10E620002E2D08D12046E16888477F1C0546022F21
:10E6300046F02006C4DBA069002803DA404246F019
:10E640000106A061F00701D026F010066C2D0BD05A
:10E65000682D09D04C2D39D06A2D35D0742D35D088
:10E660007A2D33D016E038E0E1682F4620468847FF
:10E67000B842054609D16C2F26D04FF48060E1687E
:10E68000064320468847054604E06C2F1AD04FF415
:10E69000807006430DB3A5F14100192802D820353A
:10E6A00046F400664A462946204626604E46FFF755
:10E6B000A9FD80B101280BD0F61D26F0070000F15E
:10E6C000080956E74020E4E78020D8E70020D6E795
:10E6D00006F104094DE7284652E7206ABDE8F09F9D
:10E6E000FCB102000FB400B58DB010A909900091E3
:10E6F0000B904FF0FF300A9000200C9006487844B1
:10E700000690064878446A4607900F9909A801F0D8
:10E71000F1F80DB05DF814FB131200002B1200008D
:10E720002DE9FF5F1D464FF0FF3B91464FF000087B
:10E730005F46D5E90146A96901987F1C8847296A87
:10E74000824688470028F6D1BAF1FF3F0CD0002E50
:10E7500024F4C06419DD600614D5BAF12B0F09D07A
:10E76000BAF12D0F0ED103E0584604B0BDE8F09F7A
:10E7700044F48064A96901987F1C8847761E82460C
:10E78000002E02DDBAF1300F03D0B9F1000F26D010
:10E7900032E0A969761E01987F1C44F40074884712
:10E7A000002E824605DDBAF1780F06D0BAF1580F77
:10E7B00003D0B9F1000F10D01EE0B9F1000F02D064
:10E7C000B9F1100F18D1A969761E01987F1C24F4A5
:10E7D000007488478246102002E0082000E00A20EA
:10E7E000814609E0A96908FB0908761E01987F1C8B
:10E7F00044F4007488478246002E05DD49465046A1
:10E8000000F0E8FD0028EDDAE96901988847A005E5
:10E8100002D46FF00100A8E7E00725D1600613D508
:10E82000600502D5C8F1000000E0404629680A1DD5
:10E830002A600968220501D5087015E0220701D574
:10E84000088011E008600FE02868011D2960006859
:10E85000210502D580F8008006E0210702D5A0F846
:10E86000008001E0C0F8008038467EE72DE9FF5FB8
:10E870004FF000089946144646469169D2E901A72F
:10E88000DDF838B001988847054659EA0B0005D0F5
:10E8900009E0A1690198761C88470546216A284647
:10E8A00088470028F5D1681C03D05FEACA7005D0FC
:10E8B00015E04FF0FF3004B0BDE8F09F2068011D67
:10E8C0002160D0F800800AE05FEACA7001D108F840
:10E8D000015BA169761C01987F1E88470546002FC1
:10E8E0001ADD681C18D0B9F1000F0DD0E81705EB40
:10E8F000D060421120F01F0059F822102A1A01207E
:10E9000090400142E0D107E0BBF1000FDCD1284686
:10E91000216A88470028D7D0E16901988847BBF170
:10E92000000F07D1002E05DD5FEACA7002D1002179
:10E9300088F80010A068B84203DDBBF1000F03D0D7
:10E9400017B16FF00100B6E73046B4E770B5064680
:10E9500000F082FA0468054630460A22002100F0E1
:10E960000FF82C6070BD70B5064600F075FA0468AB
:10E97000054630460A22002100F002F82C6070BDE6
:10E980002DE9F04791460F4680460446002614F8CC
:10E99000015B2DB1FFF700FD0068405DC007F6D1B7
:10E9A0002B2D02D02D2D18D0641E4A463946204604
:10E9B00000F0D0FF27B13968A14201D1C7F800802B
:10E9C0004FF0020471050BD54042002803DD00F032
:10E9D00043FA0460A007BDE8F08746F48066E4E7E8
:10E9E0000028F8DA00F038FA04606FF00040F2E72F
:10E9F0000B4910B5A1F17C020A4CC2E9371237214C
:10EA000006E000EB104342F82130074B00FB0340C7
:10EA10000B1EA1F10101F4DC10BD0120E8E70000AC
:10EA200090560120E119D666CD0D0100401ECAB2F4
:10EA300010F8011F8A4202D00029F9D10020704746
:10EA400030B503461D781DB10A4603E0AC4201D142
:10EA5000181A30BD12F8014B002CF7D15B1CF1E7FE
:10EA600030B503461D783DB10A4612F8014B1CB182
:10EA7000AC42FAD15B1CF5E7181A30BD30B505463B
:10EA80000B462A4613F8014B12F8010B08B1A042BD
:10EA9000F8D01CB1002802D06D1CF1E7284630BD2B
:10EAA00040EA010310B59B070FD1042A0DD310C80B
:10EAB00008C9121F9C42F8D020BA19BA884201D95D
:10EAC000012010BD4FF0FF3010BD1AB1D30703D0A5
:10EAD000521C07E0002010BD10F8013B11F8014B5B
:10EAE0001B1B07D110F8013B11F8014B1B1B01D177
:10EAF000921EF1D1184610BD40EA0103024630B51E
:10EB00009B0710D14FF0013400E008C208C91D1B5B
:10EB10009D4315EAC41FF8D013F0FF0102F8011B52
:10EB20000DD01B0AF8E711F8013B002B02F8013B5E
:10EB300005D011F8013B002B02F8013BF3D130BDA9
:10EB400010B5431C02E010F8011B71B18107FAD126
:10EB50004FF0013202C88C1A8C4314EAC211F9D06A
:10EB6000C01A0A0603D0C01E10BDC01A10BD0A0488
:10EB700001D0801E10BD0902FCD0401E10BD40EA2D
:10EB8000010370B59B072ED14FF00136042A2AD31A
:10EB900008C810C99D1B9D43121F15EAC61517D042
:10EBA000D8B2E1B2401A50EA056110D198B2A1B2D0
:10EBB000401A50EA05410AD123F07F4024F07F41FA
:10EBC000401A50EA052102D1180EA0EB146070BD66
:10EBD000A342DBD018BA21BA884201D9012070BD06
:10EBE0004FF0FF3070BD0AB9002070BD10F8013B36
:10EBF00011F8014B63B1A3420AD1521E08D010F89C
:10EC0000013B11F8014B1BB1A34201D1521EEDD1C2
:10EC1000181B70BD421E12F8013F002BFBD111F8EA
:10EC2000013B002B02F8013BF9D17047032A40F267
:10EC3000308010F0030C00F0158011F8013BBCF19E
:10EC4000020F624498BF11F801CB00F8013B38BFB6
:10EC500011F8013BA2F1040298BF00F801CB38BFC4
:10EC600000F8013B11F0030300F02580083AC0F0E2
:10EC7000088051F8043B083A51F804CBA0E808108A
:10EC8000F5E7121D5CBF51F8043B40F8043BAFF3BD
:10EC90000080D20724BF11F8013B11F801CB48BF17
:10ECA00011F8012B24BF00F8013B00F801CB48BF4D
:10ECB00000F8012B704710B5203AC0F00B80B1E886
:10ECC0001850203AA0E81850B1E81850A0E81850A1
:10ECD000BFF4F5AF5FEA027C24BFB1E81850A0E8AA
:10ECE000185044BF18C918C0BDE810405FEA827CC4
:10ECF00024BF51F8043B40F8043B08BF7047D207DB
:10ED000028BF31F8023B48BF11F8012B28BF20F87B
:10ED1000023B48BF00F8012B704702F0FF0343EAB3
:10ED2000032242EA024200F002B84FF00002042936
:10ED3000C0F0128010F0030C00F01B80CCF1040C2A
:10ED4000BCF1020F18BF00F8012BA8BF20F8022B5E
:10ED5000A1EB0C0100F00DB85FEAC17C24BF00F804
:10ED6000012B00F8012B48BF00F8012B70474FF032
:10ED7000000200B5134694469646203922BFA0E80B
:10ED80000C50A0E80C50B1F12001BFF4F7AF090717
:10ED900028BFA0E80C5048BF0CC05DF804EB890008
:10EDA00028BF40F8042B08BF704748BF20F8022B4B
:10EDB00011F0804F18BF00F8012B70474FF0013C55
:10EDC00050F8042B51F8043B9A4221D1A2EB0C03DA
:10EDD000934313EACC1317D150F8042B51F8043B9A
:10EDE0009A4215D1A2EB0C03934313EACC130BD137
:10EDF00050F8042B51F8043B9A4209D1A2EB0C03C2
:10EE0000934313EACC13DBD04FF00000704700BFF0
:10EE1000D01A01BAB1FA81F101F0180122FA01F019
:10EE2000CB40C1F12001DBB2C0B2C01A2CFA01F311
:10EE3000D11A914311EAC311E6D17047014900F09C
:10EE4000D9BD0000F85601207047704770477047E1
:10EE5000004870474457012000487047245701205C
:10EE600010B5FFF7F9FF006810BD10B50446FFF7B5
:10EE7000F3FF046010BD2DE9F0470D469946924618
:10EE8000044600F124080168880604D5E06921F0F1
:10EE90001001216000E00120A84201DD471B00E0D5
:10EEA0000027A1697A1902EB0900081AA0612078ED
:10EEB000C00602D42046FFF799FA002608E0D4E9FC
:10EEC00001211AF806009047206A401C761C206237
:10EED0004E45F4DB2078C0060AD52046FFF786FAB7
:10EEE00006E0D4E9012130209047206A401C2062CE
:10EEF000381EA7F10107F4DC07E0D4E9012118F876
:10EF000005009047206A401C2062281EA5F10105DB
:10EF1000F3DC2046FFF780FA2078000602D50220B5
:10EF2000BDE8F0870120FBE770472DE9FF4F0C4655
:10EF30001E464FF0FF378BB0D2E90001DDF860804C
:10EF40000A908A46C1F30A5505B93D460021084694
:10EF50004FF00000BAF1000F00F4400005DA00EBBA
:10EF600080004FF4400101EA50004FEA9059B9F196
:10EF7000010F00DDB9460A9850EA4A000ED044F667
:10EF80001050A5F2FF3545432F14B8F1000F1ED0E5
:10EF90007542291E1EDDC9F100021CE0B8F1010F07
:10EFA0004FF0000001D0302103E0F24305E021548E
:10EFB000401CB042FBDB30460022002121540B995B
:10EFC000C1F80880C1E900200FB0BDE8F08FBD1B7B
:10EFD0006D1CDEE74A4600DA694206A800F0B2FF7F
:10EFE00006AB93E8070003AB83E8070050460A9995
:10EFF00001F08AFA8DE80700A0F500501F38009054
:10F000000398002D0ADD42F21F014A4608440023FE
:10F0100003A90390684601F035FD09E0A0F5005012
:10F020004A461F38002303A90390684601F054FDA7
:10F030008DE807000004000C03D04FF0FF304108BA
:10F0400000E01046B8F1000F03D0002200921546F0
:10F050001EE0751E05D400F02DFD303262556D1E88
:10F06000F9D5B3460122084302D000227F1C04E0F8
:10F070002078302801D100227F1E002A099784D0F1
:10F080001DE0112D07DA00F015FD303262556D1CC0
:10F0900050EA0102F5D1084302D00098C8B10EE051
:10F0A0000021681E05E0235C625C63542254401E0C
:10F0B000491C8142F7DBAB46A81B401E099000208B
:10F0C00004F80B000B98099AC0F80880C0E9002BDF
:10F0D0007AE711264FF0000857E72DE9F04F8846F0
:10F0E0000446D21D22F0070191B0D1E90001CDE91B
:10F0F0000A0107F0D1FF02460B98C00F01D02D2066
:10F1000007E02068810701D52B2002E0202101EAD9
:10F11000C000032A099001D0072A05DB03464146B7
:10F12000204600F015FD0BE12078800601D5E0694E
:10F1300000E00620B8F1650F814606D0B8F1660FF1
:10F1400018D0B8F1670F70D131E00020B9F1110F7C
:10F15000009001DB112301E009F101030AAA01A9D2
:10F160000CA8FFF7E2FEDDE90C70002609F10105AD
:10F17000834647E001204B4600904FF000470AAA23
:10F1800001A90CA8FFF7D1FEDDE90DB00C995D4691
:10F19000002610B909F101000D18B9EB050003D4E0
:10F1A000C0F1FF3609F10105A5EB09002BE0B9F12B
:10F1B000010F01DA4FF001090020B9F1110F0090A1
:10F1C000484601DD112300E003460AAA01A90CA864
:10F1D000FFF7ABFEDDE90C704D4600268346207834
:10F1E00000070AD4AB4500DA5D4601A8012D04DD15
:10F1F000411911F8011C302907D04F4502DA17F1E7
:10F20000040F04DA012082460FE06D1EEEE7002FA6
:10F2100002DCED1B3E4403E0781CA84200DD7D1CAF
:10F22000B81B00F1010A4FF000472078000703D413
:10F23000AA4501DB4FF0FF3A0021B7F1004F0DF175
:10F2400043088DF8431024D002202B23002F01DA2D
:10F250007F422D230A21021EA0F1010000DC5FB1D4
:10F2600097FBF1FC97FBF1F201FB1C7C17460CF1BC
:10F27000300C08F801CDEEE7A8F1010003702188F9
:10F28000090501D5452100E06521A0F1010800F83C
:10F29000011C09980FA9A1EB0807FF1D00B101206F
:10F2A000411901EBEA70A1693844081A401EA061B7
:10F2B0002078C00602D42046FFF798F8099828B1B4
:10F2C000D4E901219047206A401C20622078C006C2
:10F2D00022D52046FFF78AF81EE0002E04DBB34556
:10F2E00002DD01A8805D00E03020D4E901219047D3
:10F2F000206A401C2062761CAAF101005FEA000A25
:10F300000AD1FFF7A5FDC0680168405CD4E901217E
:10F310009047206A401C2062281EA5F10105DCDC14
:10F3200007E0D4E9012118F8010B9047206A401C3E
:10F330002062381EA7F10107F3DC2046FFF76CF8C6
:10F34000032011B041E6000001694A1C02610878FF
:10F35000704700B58FB0CDE9013100210591054915
:10F360007944CDE9031011466846FFF7F7F80FB06E
:10F3700000BD0000E5FFFFFF0A6802F8010B0A600C
:10F38000704710B5436913B1AFF3008001E0FFF798
:10F3900054F8012010BD127800F124010A700022F7
:10F3A0004A700122EDE711684FF0FF32E9E70000F3
:10F3B000074B70B50D467B44FFF7CBFF044628464C
:10F3C00000F032FE10B14FF0FF3070BD204670BD2E
:10F3D000EBEC00003A2800D2303820F02002412A1D
:10F3E00001D3A2F13700884201D34FF0FF307047BC
:10F3F0002DE9FF4F06468BB00878FF2806D0491C40
:10F400002D2805D000244FF0000908E000200CE072
:10F410000124F8E709EB8903491C00EB430908784C
:10F42000FF28F7D114B1C9F10000814610780025FA
:10F430002C46AA4629462D2801D02B2804D1521C3F
:10F440002D2813D0002082468B461078FF280FD03D
:10F450004FF0000C0A21521CA5FB017804FB01812E
:10F4600005FB0C11C5194BEB0104EEE70120EAE79F
:10F47000002108464FF00000BAF1000F02D000EB67
:10F4800080004008C0F38157012F01DD4FF0FF37A6
:10F490000E9955EA040009EB01080BD04FF0020960
:10F4A00018F5FA7F16DA4FEACA70002F706008DD8F
:10F4B000012007E04FEACA70C6E900B00FB0BDE80E
:10F4C000F08F00203060FFF7C7FCC0F800901821D3
:10F4D000084616E0B8F5FA7F18DD002F02DAF74883
:10F4E000784401E0F6487844D0E90010C6E90010FD
:10F4F00040EACA707060FFF7AFFCC0F800901421BA
:10F5000008460FB0BDE8F04F24F0CDB90021084601
:10F510004FF00000B8F10001099002DAC7F10002D3
:10F5200000E03A4601DAC8F1000106A800F00AFD41
:10F5300006AB93E8070003AB83E8070044F23E0004
:10F540005BEA04010090584604D144F21E012C46A7
:10F550005D460091210C0904014306D10099240461
:10F5600044EA15442D041039009104F07F41014311
:10F5700006D10099240244EA15642D02083900914D
:10F5800004F07041014306D10099240144EA157446
:10F590002D01091F009104F04041014306D100995B
:10F5A000A40044EA9574AD00891E009104F0004166
:10F5B000084304D100986D196441401E00904FF03B
:10F5C00001033A466846B8F1000FCDE9014503A9A9
:10F5D00002DD01F096FA01E001F069FABAF1000FDC
:10F5E00004460D4601D084F00044002108464FF047
:10F5F0000000099940F2FF77484010F00C0F07D146
:10F6000024F00040284303D0C4F30A50B84212D17A
:10F61000FFF722FCC0F80090C4F30A50B8420AD1A8
:10F62000A8487844D0E90010C6E9001004F0004171
:10F630000843706042E7C6E900543FE72DE9FF4FF9
:10F640001F464FF0000A4FF0FF38454691B0D7E90A
:10F650000146CDF83CA0FFF7FBFBC0680168405CA9
:10F660001090B96912986D1C8847396A814688479D
:10F670000028F6D1B9F1FF3F0AD0002E24F4D0645F
:10F6800011DDB9F12B0F08D0B9F12D0F0BD102E02C
:10F69000404615B013E744F48064B96912986D1CB4
:10F6A0008847761E8146600504A901D52D2000E01B
:10F6B0002B20002E01F1010B0DF130088DF8100008
:10F6C0003FDDB9F1690F08D0B9F1490F05D0B9F1A3
:10F6D0006E0F02D0B9F14E0F1CD13B4601A8009528
:10F6E00080E85002DDE912126FF0020024F044F9C4
:10F6F000C11CCED10EE0B96912986D1C88478146B5
:10F700001398761E44F4007405600F98401C002E78
:10F710000F9016DDB9F1300FEDD0B9F1780F02D0AE
:10F72000B9F1580F0DD10F9801280AD13B46CDE908
:10F730000054DDE91212001F029624F01BF9C11CCF
:10F74000A7D1109989453ED144F0800406E0139971
:10F75000681CAAF1010A44F400740860B9696D1CC0
:10F760001298761E884730288146F0D02BE01099F9
:10F77000894505D1200603D4761E44F0800418E0A4
:10F78000484607F094FD08B3761E0DF123018B4522
:10F7900044F4007408D2A9F130000BF8010B2006E4
:10F7A00007D5AAF1010003E0200602D40AF1010006
:10F7B0008246A00502D51399681C0860B9691298A1
:10F7C0006D1C88478146002ED1DC53E0002E51DDB0
:10F7D000B9F1650F02D0B9F1450F4BD1A00549D55C
:10F7E000B9696D1C1298761E24F440748847002E67
:10F7F00081460CDD2B2804D0B9F12D0F07D144F43C
:10F800008074B96912986D1C8847761E8146E005A0
:10F8100001D52D2100E02B2108F8011BCDF8008037
:10F8200021E0761E0DF13901884544F400740CD2B4
:10F83000A9F1300010F0FF0088F8000002D1009913
:10F84000884509D908F1010806E0E00501D51E4800
:10F8500001E042F20F708246B96912986D1C884728
:10F86000814613980560002E04DD484607F01FFD11
:10F870000028D6D1F96912988847FF2053468BF8A3
:10F88000000088F8000000200A900B9004AA0CA940
:10F890000AA8FFF7ADFDA00502D46FF00100F8E65D
:10F8A00014F0240F12D0E0071CD13868DDE90A12E9
:10F8B000031D3B600068C0E9001213E0B4A702001A
:10F8C000A6A702006AA60200F1D8FFFF0AA96846AF
:10F8D00007F07CFCE00705D13868009A011D39600B
:10F8E000006802602846D4E602681144137801607B
:10F8F00018467047D16005497944516104497944FB
:10F90000116200211161114600F062B9EDFFFFFFA5
:10F910003D020000426842B1016811F8013B23B189
:10F92000521EC0E90012184670470121C160881EAE
:10F93000704742685AB1C368016843B983688B4213
:10F9400005D0491E521CC0E90012002070474FF03C
:10F95000FF3070472DE9F05F824615468B46002741
:10F960000AF10104B9460078302801D09DB113E0B6
:10F9700014F8010B0127782803D0582801D045B18D
:10F980000AE00DB1102D07D1002714F8010B102546
:10F9900002E0082500E00A250026B0460EE005FB3F
:10F9A000080005FB06F101271FFA80F801EB10465D
:10F9B000B6F5803F00D3B94614F8010B2946FFF78E
:10F9C00009FD0028EBDABBF1000F05D00FB1641E72
:10F9D00000E05446CBF80040B9F1000F06D0FFF725
:10F9E0003BFA02210160C81EBDE8F09F48EA0640CC
:10F9F000FAE7000070B50C46016800204A1C3ED0B2
:10FA00003C22B1FBF2F302FB1313B1FBF2F12360D2
:10FA1000B1FBF2F302FB1313B1FBF2F118226360A6
:10FA2000B1FBF2F302FB1313B1FBF2F146F2E03249
:10FA30000A440721A360B2FBF1F301FB132140F25A
:10FA4000B553B2FBF3F5A161B2FBF3F103FB152251
:10FA50008900B2F5B77F08D39B10521EB2FBF3F5B5
:10FA60002944B2FBF3F503FB15220F4BE261616100
:10FA700089077B440CD03B2A0AD3521C08E02C2176
:10FA80002046FFF774F90120E0600AE0521A401C9A
:10FA9000195C9142FAD9521CC4E903204FF0FF309F
:10FAA0002062204670BD00005A9D02000048704749
:10FAB0002457012030B5B0F10A024FEA900E71F1DF
:10FAC00000034EEA817EB0EB0E0061EB91014FEA3C
:10FAD000101E4EEA017E10EB0E0041EB11114FEAB1
:10FAE000102E4EEA016E10EB0E0041EB11214FEA91
:10FAF000104E4EEA014E10EB0E0041EB1141401842
:10FB000041F100014FEAD00040EA41704FEAD101D3
:10FB100010EB80054FEA810444EA907444EB010441
:10FB20006D1944EB0404521BA3414FF0000348BF7E
:10FB30000A3200D530BD401C41F1000130BD10B586
:10FB40000446FEF729FC0068005D00F0010010BDCE
:10FB50002DE9F0411F46044603260168072A01F4F7
:10FB6000006004DB08B116A505E016A503E008B1A6
:10FB700015A500E015A521F010002060A069C01EA9
:10FB8000A0610FB1401EA0612046FEF72FFC4FB1CF
:10FB9000D4E9012138469047206A401C2062C01CED
:10FBA000206206E0206AFAE7D4E9012115F8010B8A
:10FBB0009047761EF8D22046FEF72EFCBDE8F08175
:10FBC0004E414E006E616E00494E4600696E660001
:10FBD0002DE9F34F4FF0000A0C4656468DB0012038
:10FBE0000C9001F10C000B9062690B980121904779
:10FBF000051E2DD0252D2CD0216A8847C0B1626901
:10FC00000B9801219047216A88470028F7D1626943
:10FC1000411E0B98904700E0761CA1690D9888471B
:10FC2000216A88470028F7D1E1690D988847DBE70A
:10FC3000A1690D988847A842074601D1761CD3E7F1
:10FC4000E1690D9888477F1C02D1BAF1000F6FD08F
:10FC50006CE162690B9800273D46394690472A2897
:10FC600004D162690B98012190470125DFF8D08209
:10FC700062690B9801219047A0F130010A290AD24C
:10FC80004745E5DC07EB870100EB4107303FDFD458
:10FC900045F01005ECE7E90601D46FF000476C2849
:10FCA0000AD04C2814D0682815D06A280DD07428A2
:10FCB0001CD07A281AD01DE062690B980121904768
:10FCC0006C2802D045F0040514E045F002050DE073
:10FCD00045F020050AE062690B98012190476828E9
:10FCE00002D045F0080505E045F4006562690B980F
:10FCF00001219047C4E9015765283DD019DC5828F7
:10FD00007AD00CDC452837D004DC252826D04128C1
:10FD10009ED131E046282FD0472899D12CE05B288E
:10FD200077D0612828D063287CD0642823D15AE07A
:10FD3000F7E06F2848D008DC66281DD067281BD064
:10FD4000692821D06E2816D127E0702845D0732865
:10FD500068D0752847D078280DD14DE0A1690D985D
:10FD60008847252805463FF469AFE1690D98884723
:10FD70006D1C3FF46AAFD9E00D9923466A466FF0D7
:10FD8000010023F0F5FDC6E045F0400023464FF0AA
:10FD900000026060A80736D43EE0E8077FF447AF72
:10FDA0002068011D21600068290501D506701BE748
:10FDB000290701D5068017E7A90703D5F117C0E980
:10FDC000006111E706600FE745F0400023464FF061
:10FDD00008026060A80716D41EE040F60E0125EA6E
:10FDE0000100606016E045F0400023464FF00A0233
:10FDF0006060A80707D40FE045F040006060A807E6
:10FE000008D5234610220D996FF00100AFF3008052
:10FE100081E007E0102223460D996FF00100FEF704
:10FE20007FFC78E04FF0000963284F46C8464B46F8
:10FE3000CB4602D05B2807D039E02079C00601D438
:10FE40000120A060012732E06269D4F80CB00B9861
:10FE5000012190475E2807D14FF0010949466269A8
:10FE6000D4F80CB00B989047216939B900210A46A3
:10FE700003AB43F82120491C0829FADBD8B32169D8
:10FE800049B308F1010862690B98012190475D2888
:10FE9000F4D1B9F1000F09D0002003A951F82020B6
:10FEA000D24341F82020401C0828F7DB03AB20692F
:10FEB000002820794FEA40701ED05B462246CDF8DC
:10FEC0000080CDE901970D9900286FF0010020DA3C
:10FED000AFF300801FE0C11703AA00EBD1614B1103
:10FEE00021F01F0102EB8302411A136801208840B0
:10FEF00003431360C7E719E00D99224600286FF00D
:10FF00000100009702DAAFF3008004E0FEF7AEFCD8
:10FF100001E0AFF3008000280ADA401C06D10C98FB
:10FF200020B14FF0FF300FB0BDE8F08F5046FAE738
:10FF3000E90701D10AF1010A064400200C9053E6BA
:10FF4000CCCCCC0C2DE9F047814616468AB035481A
:10FF500078440DC88DE80D0032487844801C03AC0D
:10FF60000DC884E80D0041F69B300844372190FB12
:10FF7000F1F290FBF1F5A5F1800501FB12041B3CA9
:10FF800002D56442012000E00020DFF898A08046FE
:10FF90000027FA44AAF1BE0A0EE0E0070AD0324672
:10FFA000684607EB470101230AEB810100F094FD4D
:10FFB0008DE8070064107F1C002CEED1194F7F44A0
:10FFC000AE3F19E0E80715D007EB04100DF1180A51
:10FFD00090E80E008AE80E00C068F04201D198193E
:10FFE00008903246012306A903A800F075FD03AB73
:10FFF00083E807006D10641C002DE3D14FF001036E
:020000040801F1
:1000000032466946B8F1000F03A802D000F03AFD6D
:1000100001E000F061FDC9E90001C9F808200AB05B
:10002000BDE8F08704990200007B00F08000704773
:100030007546FFF73BFDAE4605006946534620F086
:100040000700854618B020B5FEF73AF9BDE8204014
:100050004FF000064FF000074FF000084FF0000B84
:1000600021F00701AC46ACE8C009ACE8C009ACE837
:10007000C009ACE8C0098D46704700002DE9FF4F6C
:100080001F464FF03C0987B04FF00042DDE91410E5
:1000900001F10108DDF858A002EA40500390002069
:1000A00005908346054604460490B969461E0898A3
:1000B0008847AAF1010A0290BAF1000F3BDD0298CD
:1000C0002E2815D01021FFF785F900282EDB4FF0E0
:1000D000010B0599014317D0B9F1000F0BDB4A461C
:1000E000C11700F0FEF905430C43A9F1040905E02E
:1000F000012004900BE008B145F0010501200590B6
:10010000049820B9361D02E0049800B1361FB96981
:10011000089808F101088847BBF1000FAAF1010A0D
:100120000290C9D00999C1F80080C5E702987028EB
:1001300008D0502806D0F96908988847BBF1000F0D
:1001400014D04FE0002002900120BBF1000F04907A
:1001500009D0B969089808F101088847AAF101098E
:10016000B9F1000F07DCF969089888476FF00100C2
:100170000BB0BDE8F08F2B2804D02D280CD14FF008
:10018000FF300490B969089808F101088847A9F17F
:100190000109B9F1000FE6DD411CE4D00A21FFF7A7
:1001A00019F90028DFDB029908F1010801EB810150
:1001B00000EB41000290B969089888470A21FFF7CF
:1001C00009F9099AA9F10109B9F1000FC2F80080F3
:1001D00001DD0028E7DAF969089888470499029850
:1001E00000FB016655EA040004D004F04041090018
:1001F00002D006E0039898E0A40044EA9574AD00AC
:10020000B61E04F00041080002D16D196441761E4B
:10021000159810F0240F03D04FF00B095C4803E051
:100220004FF028096FF07D008246564507DAAAEBA9
:1002300006018944B9F1410F01DD4FF04109012068
:100240000021A9F1010200F04CF9024628400B46BA
:100250002140084301D0012100E00021501E0291FD
:1002600043F1FF3128402140084301D0012000E044
:1002700000200299834651EA0B014FD00021084625
:100280004FF00000039900F4400039B100EB80000A
:100290004FF4400100EBD07001EA600080150128A6
:1002A00002DD4FF0FF3000E013D0401C36D0029842
:1002B00060B3BBF1000F0CD14A460120002100F0D1
:1002C00010F928402140084301D0012000E000201F
:1002D000E0B101204A46002100F003F9034640192D
:1002E0000A4661412D1A8C4111D3B9F1400F09DD45
:1002F000159810F0240F02D0AAF1340603E0AAF1F9
:10030000170600E0761C00254FF0004406E05B1E57
:1003100042F1FF3220EA030521EA0204CAF101009A
:10032000B04206DA1B490398084301900020009070
:100330000EE0039AC4F3D321E80A0A43164940EABF
:1003400044500A433146CDE90002684606F0A4FF56
:10035000159810F0240F0BD01598C00715D13868E8
:10036000DDE90012031D3B600068C0E900120CE0EB
:1003700002A8694606F02AFF1598C00705D138681B
:10038000029A011D3960006802604046F0E60000F4
:1003900002FCFFFF0000F07F0000F03F2DE9FF4F5F
:1003A00092461D4685B04FF00041DDE9124BDDE974
:1003B00014727F1E01EA4B50414940F0FF4940EA68
:1003C0000108002122F020004928049102D04E2883
:1003D00028D04CE03BA0012607C88DE80700A9699A
:1003E0000698641C88477F1E014606D41DF8060047
:1003F00018B121F0200181420BD0E96906988847A5
:10040000032E34D0082E32D06FF0010009B0BDE8C1
:10041000F08F761C032E01D0082EE0D1601CCAF8A4
:100420000000DCE7A9690698641C88477F1E2AD46F
:1004300020F02000412826D1A9690698641C88472D
:100440007F1E20D420F020004E281CD1A9690698D8
:10045000641C88477F1E48F4002849F48009CAF8C4
:10046000004001D4282806D0E969069888475FEA49
:10047000CB7012D022E0A9690698641C88477F1EC1
:1004800001D4002803DAE96906988847BCE72928DF
:10049000F1D1641CCAF80040E9E71BF0240F07D033
:1004A00028680499031D2B600068C0E9001805E066
:1004B0002868021D2A600068C0F800902046A5E761
:1004C0000000F07F494E46494E4954590000000053
:1004D00010B50446AFF300802046BDE81040FDF79C
:1004E000C2BEB2F120030AD5C2F1200301FA02F123
:1004F00020FA03F300FA02F041EA0301704700FA20
:1005000003F14FF0000070475FEA400C08BF91F024
:10051000000F4FEA8C234FEAC12243EA51514FEAC0
:100520001C5018BF00F5F0404FEA300018BF41F0F2
:1005300000415FEA6C5C00F02980BCF1FF3F08BF1E
:1005400040F080407047130C06BF12044FF0100CAF
:100550004FF0000C130E04BF12020CF1080C130F25
:1005600004BF12010CF1040C930F04BF92000CF1B4
:10057000020CD30F04BF52000CF1010C11464FF0D6
:100580000002A0F11F00A0EB0C00704711F0004F1B
:1005900008BF704731F000413FF4D5AF0B0C06BFE8
:1005A00009044FF0100C4FF0000C0B0E04BF0902B1
:1005B0000CF1080C0B0F04BF09010CF1040C8B0F9C
:1005C00004BF89000CF1020CCB0F04BF49000CF1F1
:1005D000010CCCF12003A0EB0C0022FA03F302FA89
:1005E0000CF241EA030100F10100704720F07F4C5A
:1005F00080EA030023F07F47ACEB070303F57C534D
:1006000000F0004003F1FF032DE980494FEA154B4C
:1006100009B44FEA144325EA0B4E24EA03480FF2CB
:10062000042606EB132749083E785FEA320203FBF3
:100630000667C7F5000707FB06F64FEA54374FEA8F
:10064000D64606F1020607FB066CCCF1005C4FEAC9
:100650001C472CEA074C07FB06F40CFB06F504EBE1
:1006600015464FEA961634BF00204FF000404FEA7F
:10067000D13706FB07FC4FEA1C4C0CFB0BF7D21BD7
:1006800003FB0CF761EB07010CFB0EF7B0EB074027
:1006900072EB17420CFB08F734BFA2EB0742B2EB38
:1006A000074261EB17414FEA0C444FEA910706FB02
:1006B00007FC4FEA1C4C0CFB0BF7B0EBC74072EB8E
:1006C000573203FB0CF734BFA2EBC742B2EBC74271
:1006D00061EB57310CFB0EF7B0EBC70072EB5772B2
:1006E0000CFB08F734BFA2EBC702B2EBC70261EB09
:1006F0005771039F4FEA816141EA921104EBCC04E8
:100700004FEAD1374FEA826206FB07FC42EA9012B9
:100710004FEA80604FEA1C4C0CFB0BF7D21B03FB2B
:100720000CF761EB07010CFB0EF7B0EB074072EB27
:1007300017420CFB08F734BFA2EB0742B2EB0742AB
:1007400061EB17414FEA8C554FEA910704EB9C246B
:1007500006FB07FC4FEA1C4C0CFB0BF7B0EBC74049
:1007600072EB573203FB0CF734BFA2EBC742B2EB7C
:10077000C74261EB57310CFB0EF7B0EBC70072EBD1
:1007800057720CFB08F734BFA2EBC702B2EBC702EB
:1007900061EB577115EB4C254FEA816141EA9211EB
:1007A0004FEA82624FEAD13742EA901206FB07FC19
:1007B00044F100044FEA80604FEA1C4C0CFB0BF73D
:1007C000D21B03FB0CF761EB07010CFB0EF7B0EB40
:1007D000074072EB17420CFB08F734BFA2EB07424D
:1007E000B2EB074261EB174115EB1C154FEA813163
:1007F00041EA92414FEA823242EA90424FEA803027
:100800004FEA0C7644F1000448EA03434EEA0B48F1
:100810004FF0000EB2EB080C71EB030724BF6246E9
:1008200039464EEB0E0E4FF0000B00185241494175
:100830004BEB0B0BB2EB080C71EB03077BF1000BDE
:1008400024BF624639464EEB0E0E4FF0000B0018E7
:10085000524149414BEB0B0BB2EB080C71EB030718
:100860007BF1000B24BF624639464EEB0E0E51EA77
:10087000020718BF46F0010616EB0E7655F100028E
:1008800054F1000103D5BDE88901BDE80088BDE849
:100890008901BDE80048B619524141EB0101A3F1BD
:1008A0000103704780807F7E7D7C7B7A79787776C4
:1008B00076757473727171706F6E6E6D6C6C6B6A3D
:1008C0006A696868676666656464636362616160DB
:1008D000605F5F5E5E5D5D5C5C5B5B5A5A59595858
:1008E00058575756565555555454535352525251C2
:1008F000515050504F4F4F4E4E4D4D4D4C4C4C4B18
:100900004B4B4A4A4A49494948484847474747465E
:10091000464645454544444444434343434242429A
:100920004241414146EA0646A3F570534FEA164656
:1009300046EA42564FEAD22242EA415210B54FEA05
:10094000D121A3F1010300F02FF820F0004000F1C5
:10095000020C00F0004701EB00501146BCF5006F9F
:1009600040EA070000D210BDBAF1000F0AD01CB552
:1009700003B44FF004004FF004014FF000000FBC2F
:10098000BDE810404FF00001BBF1010FB9BF0448B2
:100990004FF0FF310348002140EA070010BD00BFBF
:1009A000FFFFEF7F0000F07F002B9C4630D47700E4
:1009B0002BD01CB54FEA370703B44FF010004FF0AF
:1009C0001001BAF1000F06D0BCF1000FDCBF40F0FF
:1009D000080040F008014FF000000FBCBDE81040D7
:1009E0000BF1010BBBF1010F08BF5FEA170722BF34
:1009F00012F1010211F101014FF0004143F1000336
:100A000000F0004043EA00007047F9D35708D0E7F0
:100A100046EA064613F1400F4FEA16461FDD13F172
:100A2000200FDFBF16430A46002120335B42BED0B1
:100A3000C3F1200746EA064602FA07F74FEA1646D0
:100A400046EA0706C3F1200722FA03F201FA07F784
:100A500021FA03F14FF0000342EA0702A7E746EA52
:100A6000020646EA06464FEA164646EA0106BCBFBB
:100A700046EA0646360C4FF000034FF000024FF0F6
:100A8000000194E72DE9804C9A46934670B491E8B2
:100A9000380007C831EA400C48BF34EA430C03D59C
:100AA000FFF7A4FDFFF780FFF0BCBDE8008C2DE947
:100AB000804C9A46934670B491E8380007C831EAF2
:100AC000400C48BF34EA430C03D5FFF78FFDFFF716
:100AD00029FFF0BCBDE8008C2DE9804C9A46934676
:100AE00070B491E8380007C810F0804F08BF13F0C9
:100AF000804F03D100F01AF8FFF756FFF0BCBDE8B5
:100B0000008C2DE9804C9A46934670B491E83800E9
:100B100007C810F0804F08BF13F0804F03D100F0DA
:100B200005F8FFF7FFFEF0BCBDE8008C20F07F4722
:100B300080EA030023F07F4C07EB0C03A3F57C5302
:100B400000F00040A3F1FE0392F0000F00F0B3802C
:100B500095F0000F00F077802DE901494FEA114030
:100B60004FEA144621EA004800FB06FC24EA064747
:100B700008FB06F607FB08F800FB07F718EB06482A
:100B80004CEB164C4FEA124B18EB07484FEA154650
:100B90004CEB174022EA0B4E0BFB06FC25EA0647FE
:100BA0000EFB06F607FB0EFE0BFB07F71EEB064ED1
:100BB0004CEB164C4FF000061EEB074E4CEB174B60
:100BC00018EB0B0840F1000018EB0E0B58EB000877
:100BD00040F100008F1A4FF000013CBFC943661B73
:100BE00014BFB5EB040C00213CBFC943F61B4FEA10
:100BF00017444EEA8E0E27EA04454FEA1C4704FBD1
:100C000007622CEA074C05FB07F70CFB05F604FB13
:100C10000CFC16EB074642EB174216EB0C4642EB78
:100C20001C421BEB060658EB0202414146EA9E06B7
:100C300001D5BDE80189B619524141EB0101A3F18B
:100C40000103BDE801894FEA14454FEA114724EA40
:100C5000054621EA074C05FB07F406FB07F70CFBEA
:100C600006F105FB0CFC11EB074144EB17444FEA7E
:100C7000124711EB0C4144EB1C4422EA074C05FBE4
:100C800007F206FB07F70CFB06F605FB0CFC16EB60
:100C9000074642EB174216EB0C4642EB1C456A181E
:100CA00054F1000148BF7047B619524141EB0101B0
:100CB000A3F10103704795F0000F37D04FEA1142BE
:100CC0004FEA144721EA024624EA074C02FB07F1E7
:100CD00006FB07F70CFB06F402FB0CFC14EB0744C5
:100CE00041EB17414FEA154714EB0C4441EB1C4113
:100CF00025EA074C02FB07F506FB07F70CFB06F697
:100D000002FB0CFC16EB074645EB174516EB0C46B1
:100D100045EB1C42121951F1000148BF7047B6194A
:100D2000524141EB0101A3F1010370474FEA144521
:100D30004FEA114724EA054621EA074C05FB07F173
:100D400006FB07F70CFB06F24FF0000605FB0CFC58
:100D500012EB074241EB174112EB0C4251EB1C41E5
:100D600048BF7047921841EB0101A3F1010370479E
:100D700000BFFEE7F8B505460E464FF6FF7448F291
:100D8000050000906946684601F01CFA10E015F86D
:100D9000010B4440002009E004F0010121B1BDF83D
:100DA000001081EA640400E06410401C0828F3DBB2
:100DB000301EA6F10106EAD12046F8BDF8B5064678
:100DC0000D461446002741F2BA30844208D12B4622
:100DD000202208493046009402F08CFA074607E0CA
:100DE0002B46692204493046009402F083FA0746F4
:100DF0003846F8BDAD0300204403002021B102684D
:100E000042F00102026003E0026822F00102026087
:100E1000704700002DE9F0418CB004460D4616469F
:100E20001F46DDF848801648844204D80121084650
:100E300004F030F903E00121022004F02BF92046F0
:100E400000F020F8019502960397CDF8108000205D
:100E500005908020069000200790089009904FF49C
:100E600080500A9000200B9001A9204600F0C1F8A4
:100E700001212046FFF7C2FF0CB0BDE8F081000061
:100E800008040240016821F00101016000210160B5
:100E900041608160C1604C49884208D14A490839A3
:100EA000496841F00F01484A083A51608AE04649D2
:100EB0001431884208D144490839496841F0F001A9
:100EC000414A083A51607DE03F492831884208D1C3
:100ED0003D490839496841F470613B4A083A51601C
:100EE00070E039493C31884208D1374908394968AE
:100EF00041F47041344A083A516063E0324950315C
:100F0000884208D130490839496841F470212E4A95
:100F1000083A516056E02C496431884208D12A4988
:100F20000839496841F47001274A083A516049E09C
:100F300025497831884208D123490839496841F068
:100F40007061214A083A51603CE02049884206D14C
:100F5000011F096841F00F01021F116032E01B49B7
:100F60001431884208D11949091F096841F0F0017C
:100F7000164A121F116025E014492831884208D111
:100F80001249091F096841F47061104A121F11606B
:100F900018E00E493C31884208D10C49091F096804
:100FA00041F47041094A121F11600BE007495031AA
:100FB000884207D10549091F096841F47021034A95
:100FC000121F116070470000080002400804024030
:100FD00070B504460D4600212046FFF70FFF6560FF
:100FE00001212046FFF70AFF70BD0146486880B224
:100FF000704710B50022026847F6F0739A430C6AF6
:101000008B6823430C6923434C6923438C69234336
:10101000CC6923434C6A23438C6A23431A430260FE
:10102000CB6843600B6883604B68C36010BD70473A
:1010300008B53D208DF8000000208DF801008DF8E6
:10104000020001208DF80300684601F043FD08BD51
:1010500001494861704700000090024029B1064AEA
:10106000D2690243044BDA6104E0034AD269824345
:10107000014BDA61704700000090024030B107492F
:10108000896941F00201054A916105E003498969D6
:1010900021F00201014A9161704700000090024076
:1010A00030B50C4613460021104D286000BF18E0F3
:1010B00000EB01124FF00045156044F2F055556009
:1010C000C1EB411505EB811504EB051595605D1E1F
:1010D0008D4204D900EB01151035D56000E0D060D9
:1010E000491C9942E4D3024DE86030BDA0010020C4
:1010F0000090024030B10749896941F40051054A26
:10110000916105E00349896921F40051014A916127
:10111000704700000090024030B50C461346002195
:101120000F4D286000BF15E000EB01124FF4801551
:101130001560C1EB411505EB811504EB05159560B4
:101140005D1E8D4204D900EB01151035D56000E01D
:10115000D060491C9942E7D3024D286130BD0000A0
:101160009C0100200090024002680A430260704720
:1011700010B50121880303F09DFF00214FF480404A
:1011800003F098FF10BD00000348806940F4801010
:1011900001498861704700000090024001480068E2
:1011A000806870479C01002001460868C0F30D402C
:1011B0007047000000B500220F480068006800F08A
:1011C0000040B0B90C480068008800F4004080B9C5
:1011D00009480068008800F4807050B10648006833
:1011E000008800F4007020B103480068FFF7DCFFBE
:1011F0000246104600BD0000A00100200020044966
:10120000096801F0010109B1012000E000207047E8
:101210000090024010B501E016F066FCFFF7CAFF2F
:101220000028F9D14020FFF713FF4FF48030FFF77B
:101230000FFF10BD2DE9F04188B004460F464FF076
:101240000008002500200790904E01909048056905
:1012500025F01C0502A803F087FF039E8D488642F7
:1012600005D38D48864202D245F0080509E08A4838
:10127000864205D38548864202D245F00C0500E03F
:1012800000BF834805614FF400420021384600F05A
:1012900013FB18B9002008B0BDE8F0817F48079023
:1012A00002E00798401E079007980028F9D12068AF
:1012B00000284ED000BF0198401C01900121384603
:1012C00000F0D4F900F0040018B97549019888427B
:1012D000F1D373490198884201D10020DBE7002057
:1012E00001904FF480520021384600F0E5FA08B929
:1012F0000020D0E700BF0198401C01900121384632
:1013000000F0B4F900F0200018B96549019888424E
:10131000F1D363490198884201D10020BBE7002046
:1013200001901021384600F0A1F9804608F0040031
:1013300018B14FF40060206201E00020206208F044
:10134000020010B1002060611CE04FF48040606139
:1013500018E0206AC0F3CF006169C1F34F0140EA91
:1013600001020021384600F0A7FA08B9002092E7F0
:101370006FF07F40079002E00798401E07900798A3
:101380000028F9D14248056846480540D4E90101E2
:101390000843E16808432169084361690843A1697A
:1013A0000843E1690843216A0843616A0843A16A66
:1013B0000843E16A0843216B0843616B0843054316
:1013C00033480560D4E90E010843216C0843616C81
:1013D0000843A16C0843E16C0843216D0843616D2B
:1013E00008432B494860A06D8860E06DC8600846DE
:1013F00085694FF641700540B4F86010606E40EAB0
:101400000140A16E0843E16E0843216F0843616FFC
:10141000084305431E488561D4E91E0108431C4961
:10142000C8612148856921480540D4E92001084365
:10143000D4F888100843D4F88C100843D4F89010DE
:101440000843D4F894100843D4F898100843D4F80B
:101450009C100843D4F8A010084305431248856146
:10146000D4E929010843D4F8AC100843D4F8B010EB
:101470000843D4F8B41040EA8100D4F8B810084307
:1014800040F4000008490860012004E70087930346
:1014900000800240002D3101C00E1602FFFF0F0038
:1014A000FFFF04000F8120FF00900240233FDEF881
:1014B00010B50B794C7943EA0422094B03441A64B2
:1014C000CB781B068C7843EA04434C7843EA042328
:1014D0000C7843EA0402024B03445A6410BD000036
:1014E0000080024010B5B0B001A800F05DF94FF4E3
:1014F0008030059001200190002008904FF400708A
:101500000B9000200C904FF000400F9000201290A4
:101510001490102015900020169021904FF000702C
:1015200022900011249000202690279004202990DA
:10153000C0052A9040122B9080012C9040122D90D3
:1015400040002F90002101A8FFF774FEC4B2012CC7
:1015500003D101210248FFF781FD204630B010BDC4
:101560004000010030B10749096841F00401054A13
:10157000116005E00349096821F00401014A116086
:10158000704700000080024030B10749096841F00F
:101590000801054A116005E00349096821F00801C6
:1015A000014A1160704700000080024010B50F48EA
:1015B0000168002017F052FA0D480168002017F06A
:1015C0004DFA0C480168002017F048FA0A480168F3
:1015D000002017F043FA002004490860044908601D
:1015E000044908600449086010BD0000E0000020C4
:1015F000E4000020E8000020EC00002010B5FFF718
:10160000D5FF2021002017F043FA1449086020215B
:10161000002017F03DFA124908604FF43E610020A7
:1016200017F036FA0F4908604FF43E61002017F0BA
:101630002FFA0D4908600948006840B10848006861
:1016400028B10848006810B10846006818B9FFF7CB
:10165000ADFF012010BD0020FCE70000E0000020ED
:10166000E4000020E8000020EC00002018B502464D
:101670000B460021002000901548016901F01C0173
:101680004FF4784000EAC22001434FF4F86000EACA
:101690008310014321F0020141F001010C48016176
:1016A00000BF0098401C00900948016901F001004A
:1016B00018B1084C0098A042F3D3064C0098A04201
:1016C00001D1002018BD0248406980B2FAE700004D
:1016D00000800240FFFF04001EB50021002200929E
:1016E00001920292214A1268126802F0004282B10D
:1016F000002200921E4A526902F0800222B180222A
:101700001B4B5A6100229A609DE81C0080E81C0077
:101710001EBD164A1268128802F40042B2B9134A7A
:101720001268128802F4807282B1104A126812881C
:1017300002F4007252B10D4A12681268C2F30D42EF
:10174000111F0A4A12689268019200E0002100917C
:10175000064A12680292054A1268D268034B1A6060
:101760009DE81C0080E81C0000BFD1E7A00100201C
:10177000009002400348006840F001000149086001
:10178000704700000090024000B50120FFF7FCFE0A
:10179000FFF7FAFC0120FFF7E5FE0120FFF7AAFCA6
:1017A0000120FFF76BFC00BD0021016041608160FA
:1017B000C160016141618161C16101624162816217
:1017C000C162016341638163C163402101642021DF
:1017D000416400218164C164016541658165C16521
:1017E00001668021416600218166C166016741670B
:1017F0008167C1674FF08061C0F880104910C0F860
:1018000084104910C0F88810C910C0F88C1000214D
:10181000C0F89010C0F89410C0F89810C0F89C1050
:10182000C0F8A0104FF00071C0F8A4100021C0F85B
:10183000A8104FF40031C0F8AC104912C0F8B01035
:101840000021C0F8B410C0F8B8107047014617481E
:101850000068006800F0004008B100207047C1F344
:101860000C00124A1268506010480068006840F08E
:1018700040500E4A126810600C480068006840F042
:1018800000400A4A126810600948406900F00400EC
:1018900020B10420064A50610020506003480068CF
:1018A000C068024A10600120D8E700009C010020B7
:1018B000009002407047000038B503460C460021F6
:1018C000002000901448016901F01C014FF4784099
:1018D00000EAC32001434FF4F86000EA841001439A
:1018E00041F0020141F001010B484261016100BF7A
:1018F0000098401C00900848016901F0010018B1EF
:10190000064D0098A842F3D3044D0098A84201D197
:10191000002038BD0120FCE700800240FFFF0400EA
:101920000149086070470000140401400021234968
:101930008279002A3AD00A46126803689A430B4615
:101940001A600A1D126803689A430B1D1A60027917
:1019500011440A6803681A430A60184A0832126878
:1019600003689A43154B08331A601A1D12680368FE
:101970009A43124B0C331A604279102A0ED11A1F67
:10198000126803681A430D4B08331A601A1D126857
:1019900003681A43094B0C331A600DE0074942797A
:1019A00011440A6803681A430A6005E00279114489
:1019B0000A6803689A430A60704700000004014007
:1019C00070B50546042440F6FF7000F073F8044635
:1019D000042C19D10D48006940F002000B49086140
:1019E00008464561006940F04000086140F6FF701C
:1019F00000F060F80446052C06D00448006941F662
:101A0000FD71084001490861204670BD0020024078
:101A100004200B49C96801F0010109B101200EE061
:101A20000749C96801F0040109B1022007E004492F
:101A3000C96801F0100109B1032000E004207047DB
:101A4000002002400348006940F08000014908611D
:101A5000704700000020024070B505460E46042481
:101A60000F2000F027F80446042C13D10A4800691F
:101A700040F00100084908612E800F2000F01AF89C
:101A80000446052C06D00448006941F6FE71084062
:101A900001490861204670BD002002400248034908
:101AA00048600348486070472301674500200240B2
:101AB000AB89EFCD70B504460425FFF7A9FF0546B5
:101AC00005E009F051FEFFF7A3FF0546641E012D56
:101AD00001D1002CF5D104B90525284670BD2DE9AA
:101AE000F04107460D461646002409E055F824103B
:101AF0003846FDF763F910B92046BDE8F081641C53
:101B0000B442F3DB4FF0FF30F7E700000149086013
:101B100070470000DC0020422DE9F041024600251C
:101B20000026002000230024002791F803C00CF0B9
:101B30000F0591F803C00CF0100CBCF1000F03D09E
:101B400091F802C04CEA050591F800C0BCF1000F05
:101B500031D0146800202BE04FF0010C0CFA00F398
:101B6000B1F800C00CEA03069E4220D183004FF07A
:101B70000F0C0CFA03F7BC4305FA03FC4CEA04040F
:101B800091F803C0BCF1280F06D14FF0010C0CFAFC
:101B900000FCC2F814C00AE091F803C0BCF1480F81
:101BA00005D14FF0010C0CFA00FCC2F810C0401C2B
:101BB0000828D1D31460B1F800C0BCF1FF0F34DDA8
:101BC000546800202EE000F1080C4FF0010808FADC
:101BD0000CF3B1F800C00CEA03069E4221D1830049
:101BE0004FF00F0C0CFA03F7BC4305FA03FC4CEA68
:101BF000040491F803C0BCF1280F05D100F1080CD2
:101C000008FA0CF8C2F8148091F803C0BCF1480F30
:101C100007D100F1080C4FF0010808FA0CF8C2F8DF
:101C20001080401C0828CED35460BDE8F08100002D
:101C3000F0B50A460023002400210025174E7168E4
:101C4000C0F3034583B200F44016B6F5401F08D137
:101C500021F07061114E766826F070660F4F7E603D
:101C600012E000F48016B6F5801F06D1032606FAAE
:101C700005F4A14341F0706106E0460D360103FA18
:101C800006F6B14341F0706122B1460D360103FA08
:101C900006F63143014E7160F0BD000000000140C6
:101CA0000246002093680B400BB1012000E00020A9
:101CB000704702460020D3680B400BB1012000E0C2
:101CC0000020704741617047016170470AB10161AE
:101CD00000E04161704700002DE9F04107460D46E4
:101CE00016464FF0010800F0D9F91C49087800F0B9
:101CF000ADF900F011FA10B14FF0000828E03846B5
:101D000000F0A4F900F008FA10B14FF000081FE04D
:101D100000F0C4F911490978491CC8B200F096F9DD
:101D200000F0FAF910B14FF0000811E000240CE0C7
:101D3000701EA04204D1002000F058F9285503E09D
:101D4000012000F053F92855641CB442F0D300BFC1
:101D500000F0C4F94046BDE8F08100001101002008
:101D60002DE9F04107460D4616464FF001080024C4
:101D700000F094F91549087800F068F900F0CCF902
:101D800008B1A04617E0384600F060F900F0C4F949
:101D900010B14FF000080EE0002409E0285D00F0CB
:101DA00055F900F0B9F910B14FF0000803E0641CD8
:101DB000B442F3D300BF00F091F9B8F1000F02D0A4
:101DC0000120BDE8F0810020FBE7000011010020A8
:101DD0002DE9F04395B080460E461746282108A805
:101DE000FCF7C5FF4FF00009002400200590069085
:101DF000079005A81BF032FF40F2DC51002016F0DE
:101E000047FE05460698000CADF84800069880B2DB
:101E1000ADF84A000798000CADF84C00FCF72AFA20
:101E200042F2283190FBF1F201FB120000F57A70CA
:101E300080B2ADF84E00FCF71DFA42F2283190FB5B
:101E4000F1F201FB120000F57A7080B2ADF850009B
:101E5000FCF710FA42F2283190FBF1F201FB12007C
:101E600000F57A7080B2ADF85200BDF85200BDF8AE
:101E70005010BDF84E20BDF84C30CDE90132CDE90F
:101E80000310BDF84A000090BDF8483017A108A81B
:101E9000059AFCF795FA1EA227A12846FCF790FAAE
:101EA0000446281925A224A1FCF78AFA044428191B
:101EB00008AA21A1FCF784FA0444281923A21EA130
:101EC000FCF77EFA04440020285533462246294672
:101ED0004046009701F00EFA81462946002016F090
:101EE000BDFD484615B0BDE8F083000025303858E8
:101EF0002D253034582D253034582D253034582D8B
:101F0000253034582530345825303458000000002E
:101F10003C3F786D6C2076657273696F6E3D22313F
:101F20002E302220656E636F64696E673D22757482
:101F3000662D38223F3E0000257300003C50726F32
:101F400062653E3C557569643E0000003C2F557546
:101F500069643E3C54797065733E696E717569724F
:101F6000793C2F54797065733E3C2F50726F6265D7
:101F70003E00000010B504F077FB10BD10B5002046
:101F80000A49086011F00CFD00200949C1F89001D0
:101F9000022009F05BFC012004490860022009F0DE
:101FA00055FC00200249C1F8940110BD9401234260
:101FB0000000234210B500200A49086011F0F0FC2F
:101FC00001200949C1F89001022009F03FFC0120DD
:101FD00004490860022009F039FC00200249C1F8D8
:101FE000940110BD940123420000234270B50546C0
:101FF000002411F0C3FC00261AE0002011490860FB
:10200000012009F023FC6006040E0F48D0F81001EF
:1020100008B1601CC4B2012009F018FC0120094974
:10202000086009F013FC012009F010FC701CC6B216
:10203000082EE2DB15B9FFF7BDFF01E0FFF79EFFB9
:10204000204670BD940123420000234270B504462F
:1020500011F0A6FC00200F490860002517E0E009F8
:102060000C49091F08606006040E022009F0EEFB0F
:1020700001200949C1F89401022009F0E7FB002082
:1020800004490860022009F0E1FB681CC5B2082D74
:10209000E5DB70BD940123420000234210B511F02E
:1020A0007FFC01200B490860022009F0CFFB0120D2
:1020B0000949C1F89401042009F0C8FB0020054932
:1020C0000860042009F0C2FB00200349C1F8940114
:1020D00010BD0000900123420000234210B511F012
:1020E0005FFC00200A490860022009F0AFFB0020D5
:1020F0000849C1F89001042009F0A8FB0120044917
:1021000008600449C1F89001042009F09FFB10BD4C
:10211000940123420000234210B5002411F02EFC4C
:1021200001200E49086009F091FB01200C49C1F81B
:10213000940109F08BFB07E0601CC4B2FA2C03DDAC
:10214000FFF7CCFF012010BD04488038006800284C
:10215000F2D10249091D086000BFF4E79001234253
:10216000000023422DE9F04107460C4615469846EB
:102170000026224629460CA0FFF7B1FC0746781C32
:1021800078B100BF0BE055F8260007A1FCF716FE5A
:1021900018B9002108461BF053FC701CC6B2A642B9
:1021A000F1DB03A0BDE8F0816C6F67696E00000091
:1021B0002F70617273652E7368746D6C000000007F
:1021C000704770473CB502460023009301930020FE
:1021D0000FE00B880124844023404BB1BDF8003050
:1021E000C0F10F050124AC4023439BB2ADF8003091
:1021F000401C1028EDDBBDF8003013803CBD0146CB
:10220000CA1701EB92729210A1EB820292B964207C
:1022100091FBF0F200FB121050B94FF4C87091FB23
:10222000F0F200FB121008B9012070470020FCE713
:102230000120FAE70020F8E710B501210020FFF7A0
:1022400015FA00F0040010BD38B5002401211D204E
:1022500002F060FF0120FFF759FC0420ADF80000F8
:1022600003208DF8020018208DF8030069463B48D2
:10227000FFF752FC0220ADF8000003208DF80200A9
:1022800018208DF8030069463548FFF745FC4FF4E8
:102290006050ADF8000003208DF8020018208DF882
:1022A000030069462F48FFF737FC8220ADF8000095
:1022B00003208DF8020004208DF8030069462748AA
:1022C000FFF72AFC3020ADF8000003208DF8020053
:1022D00004208DF8030069462148FFF71DFC4FF4E8
:1022E0008060ADF8000003208DF8020010208DF80A
:1022F000030069461B48FFF70FFC0120ADF8000002
:1023000003208DF8020010208DF80300694615485F
:10231000FFF702FC0020144908601449C1F8A80125
:10232000322009F05DFA01200F4928310860FEF7DC
:102330007FFE01214FF4E03002F0ACFEFEF718FF03
:10234000FFF718FA00BFFEF759FF0128FBD0012460
:102350000CB9012038BD0020FCE700000008014056
:1023600000100140000C0140808121420080214288
:1023700038B50446042C2AD169462E2000F062F9B3
:1023800008B9002038BD9DF8000000F01F00009043
:102390009DF8000000909DF800102E2000F080FBBA
:1023A00008B90020EEE76946242000F04BF908B98F
:1023B0000020E7E79DF8000000F0BF0000909DF8C6
:1023C0000010242000F06CFB08B90020DAE794BB71
:1023D0006946242000F036F908B90020D2E79DF8BC
:1023E000000000F0BF0000909DF8000040F04000A9
:1023F00000909DF80010242000F052FB08B9002046
:10240000C0E769462E2000F01DF908B90020B9E7A1
:102410009DF8000000F01F0000909DF8000040EAC9
:102420008410C0B200909DF800102E2000F038FB00
:1024300008B90020A6E7FFE7012C32D16946242025
:1024400000F000F908B900209CE79DF8000000F0BA
:10245000BF0000909DF8000040F0400000909DF803
:102460000010242000F01CFB08B900208AE7694610
:102470002E2000F0E7F808B9002083E79DF800005F
:1024800000F01F0000909DF8000040EA8410C0B2E8
:1024900000909DF800102E2000F002FB08B90020EB
:1024A00070E7022C32D16946242000F0CBF808B93D
:1024B000002067E79DF8000000F0BF0000909DF845
:1024C000000040F0400000909DF80010242000F033
:1024D000E7FA08B9002055E769462E2000F0B2F867
:1024E00008B900204EE79DF8000000F01F000090A2
:1024F0009DF8000040EA8410C0B200909DF80010E2
:102500002E2000F0CDFA08B900203BE7032C32D191
:102510006946242000F096F808B9002032E79DF8BB
:10252000000000F0BF0000909DF8000040F0400067
:1025300000909DF80010242000F0B2FA08B90020A5
:1025400020E769462E2000F07DF808B9002019E741
:102550009DF8000000F01F0000909DF8000040EA88
:102560008410C0B200909DF800102E2000F098FA60
:1025700008B9002006E7012004E7F8B504466D46D7
:102580006E1C2946282000F05DF808B90020F8BD2F
:102590003146292000F056F808B90020F7E7BDF9C8
:1025A0000000208029462A2000F04CF808B90020BD
:1025B000EDE731462B2000F045F808B90020E6E7AA
:1025C000BDF90000608029462C2000F03BF808B9D6
:1025D0000020DCE731462D2000F034F808B9002057
:1025E000D5E7BDF90000A0800120D0E708B50121A2
:1025F000402002F08FFD2020ADF8000010208DF863
:10260000030003208DF8020069460B48FFF784FAA7
:102610001020ADF800008DF8030003208DF80200B3
:1026200069460548FFF778FA012004490860044923
:10263000C1F8940108BD0000001801409001234238
:102640000000234270B504460D460848007830B1BA
:10265000012229462046FFF73FFB012070BD0122E1
:10266000294620460DF0C8FC0120F7E70F010020A5
:1026700008B569462420FFF7E5FF08B9002008BD2A
:102680009DF8000000F07F0000909DF8000040F0F1
:10269000800000909DF80010242000F001FA08B995
:1026A0000020ECE70021202000F0FAF90021212091
:1026B00000F0F6F90021222000F0F2F90021232099
:1026C00000F0EEF90021242000F0EAF90021252095
:1026D00000F0E6F90420FFF74BFE0120CFE70000F1
:1026E00008B50121402002F015FD2020ADF80000C2
:1026F00010208DF8030003208DF8020069460E4873
:10270000FFF70AFA1020ADF800008DF8030003204F
:102710008DF8020069460848FFF7FEF90820ADF879
:10272000000048208DF8030003208DF80200694660
:102730000148FFF7F1F908BD0018014010B5014646
:10274000002000221FE00023124C236001F08003D0
:102750001BB10123241F236003E000230D4C241F21
:1027600023604B06190E01230A4C23604306180E02
:10277000094BD3F80C3113B140F0010001E020F017
:102780000100531CDAB2082ADDDB0023014C236070
:1027900010BD0000940123420000234238B50446D6
:1027A00069462020FFF74EFF08B9002038BD9DF88C
:1027B000000000F0F800009004F007009DF8001001
:1027C000084300909DF80010202000F069F908B936
:1027D0000020EBE70120E9E738B5044669462320ED
:1027E000FFF730FF08B9002038BD9DF8000000F069
:1027F0007F0000909DF8000040EAC410C0B2009035
:102800009DF80010232000F04BF908B90020EBE7F9
:102810000120E9E738B5044669463820FFF712FF82
:1028200008B9002038BD9DF8000000F0C0000090FD
:102830009DF80000204300909DF80010382000F023
:102840002FF908B90020EDE70120EBE710B50446A9
:1028500021463C2000F024F908B9002010BD0120D9
:10286000FCE710B504467F2C01DD002010BD214699
:102870003B2000F015F908B90020F7E70120F5E743
:1028800010B504467F2C01DD002010BD21463A2002
:1028900000F006F908B90020F7E70120F5E710B5C8
:1028A000044621463D2000F0FBF808B9002010BD89
:1028B0000120FCE738B5044669462320FFF7C2FE35
:1028C00008B9002038BD9DF8000000F0CF0000904E
:1028D0009DF8000040EA0410C0B200909DF800107E
:1028E000232000F0DDF808B90020EBE70120E9E73C
:1028F00038B5044669462120FFF7A4FE08B9002038
:1029000038BD9DF8000000F03F0000909DF80000E9
:1029100040EA8410C0B200909DF80010212000F021
:10292000BFF808B90020EBE70120E9E738B5044615
:1029300069462220FFF786FE08B9002038BD002036
:1029400000909DF80000204300909DF80010222088
:1029500000F0A6F808B90020F0E70120EEE738B54E
:10296000044669462520FFF76DFE08B9002038BDF2
:10297000002000909DF80000204300909DF800107A
:10298000252000F08DF808B90020F0E70120EEE7DF
:102990001CB5044601A92020FFF754FE08B9002009
:1029A0001CBD69462320FFF74DFE08B90020F7E75C
:1029B0009DF8040000F0F00038B92948007800F0D4
:1029C000F0009DF804100843019024B1012C1FD0A1
:1029D000022C30D109E09DF80400214908709DF8CF
:1029E000040000F00F00019027E09DF8040000F0C3
:1029F000F70001909DF8040001909DF8000000F0A0
:102A0000F70000909DF8000040F00800009014E0EE
:102A10009DF8040000F0F70001909DF8040040F0DC
:102A2000080001909DF8000000F0F70000909DF86C
:102A30000000009001E00020B2E700BF9DF8041004
:102A4000202000F02DF808B90020A9E79DF800101B
:102A5000232000F025F808B90020A1E701209FE716
:102A60001001002038B5044669462020FFF7EAFD32
:102A700008B9002038BD9DF8000000F00F0000905C
:102A80009DF8000040EA0410C0B200909DF80010CC
:102A9000202000F005F808B90020EBE70120E9E765
:102AA00013B504460848007830B1012201A9204638
:102AB000FFF756F901201CBD012201A920460DF0A7
:102AC000B5FA0120F7E700000F01002000BFFEE784
:102AD0007047000070B5002100230F22C47804B3B2
:102AE000154C246804F4E064C4F5E064210AC1F1E3
:102AF0000403CA40447804FA03F184781440214363
:102B000009010E4C0678A155047804F01F05012434
:102B1000AC4005786D11AD0005F1E025C5F8004128
:102B200009E0047804F01F050124AC40044D067848
:102B3000761145F8264070BD0CED00E000E400E0A1
:102B400080E100E002490143024A11607047000041
:102B50000000FA050CED00E0024A0A400243024B75
:102B60001A60704780FFFF1F08ED00E070B586B067
:102B700005460C46002601200590042005AB0246C0
:102B800040F6FF710090284615F0AAF902208DF852
:102B90000500002014F068FE0290A0B214F071FE4F
:102BA000ADF80600102201A90348006814F0B2FC39
:102BB0000646304606B070BDD8030020F0B587B099
:102BC000002006900490059000260190029003904A
:102BD00000244B4981F82C0000252EE0002720E03E
:102BE000394606A805F02AFB464901EB850006A9EF
:102BF00016F06EFE002801DB012610E0394604A81D
:102C000005F03CFB002808DA05EB45023D49283178
:102C100001EB4200394605F035FE002603E0781C42
:102C2000C7B20A2FDCDB00BF012E04D1681C01A94A
:102C30000855601CC4B2681CC5B23248801E40787A
:102C4000A842CBDC002C26DD002521E0294606A881
:102C500005F0F4FA0646002E18DA601EC4B201A987
:102C6000095D491E274A02EB8100294605F03CFE1A
:102C700001A9095D491E01EB41022249283101EBFE
:102C80004200294605F0FEFD04B903E0681CC5B208
:102C90000A2DDBDB00BF05F09DFD00252CE0294659
:102CA00006A805F0CBFA0646002E23DB1548801E49
:102CB000407820B90021284608F054FF1AE0002788
:102CC00012E0104901EB870006A916F001FE00286A
:102CD00004DA0121284608F045FF0AE000212846D1
:102CE00008F040FF781CC7B20648801E4078B84202
:102CF000E7DC00BF681CC5B20A2DD0DB07B0F0BD11
:102D0000043A0120764D01202DE9F04391B00746A9
:102D10000E460024002510200C90182106A8FCF770
:102D200026F80020059003900490804640F6AC51B0
:102D300015F0AEFE04460CA80DA9002340F6AC52D7
:102D4000CDE900102146384614F0D6FE0546002D88
:102D50004ADD002060550EA811F0A2FC814609A8AA
:102D600008A907AB06AACDE9001024A14846FBF745
:102D7000B9FC0698C0B28DF814000798C0B28DF85F
:102D800015000898C0B28DF816000998C0B28DF8E9
:102D90001700324603A9204616F004FC05A816F0D9
:102DA0007DFD00F0FF08B8F1000F1FD116484178F3
:102DB000801C00EB8100059901601348407800EB0E
:102DC000400111482A3000EB410003990160BDF831
:102DD000101081800C4840780A2807DA0A484078A9
:102DE000401C0949487001E04FF0FF3521460020A2
:102DF00015F034FE284611B0BDE8F08325642E2579
:102E0000642E25642E256400744D01202DE9F043C5
:102E10009DB080460E461746142118A8FBF7A7FF61
:102E200034210BA8FBF7A3FF4FF00009002400207A
:102E3000089009900A9008A81AF010FF40F2DC519F
:102E4000002015F025FE0546FBF714FA42F2283162
:102E500090FBF1F201FB120000F57A7080B2ADF840
:102E60006000FBF707FA42F2283190FBF1F201FB18
:102E7000120000F57A7080B2ADF86200FBF7FAF943
:102E800042F2283190FBF1F201FB120000F57A705A
:102E900080B2ADF86400FBF7EDF942F2283190FB07
:102EA000F1F201FB120000F57A7080B2ADF8660015
:102EB000FBF7E0F942F2283190FBF1F201FB12003E
:102EC00000F57A7080B2ADF86800099880B2ADF86C
:102ED0006A000998000CADF86C000A9880B2ADF851
:102EE0006E000A98000CADF87000BDF87000BDF8D7
:102EF0006E10BDF86C20BDF86A30CDE90432CDE922
:102F00000610BDF86800BDF86620BDF86410BDF875
:102F1000623003F0F0031B12CDE90031CDE902204D
:102F2000BDF8620000F00F03BDF860203BA10BA8C4
:102F3000FBF746FA45A10BA8FBF742FA4EA258A1AF
:102F40002846FBF73DFA04462819564A54A1FBF7D8
:102F500037FA0444281954A251A1FBF731FA04446A
:102F6000281960A24EA1FBF72BFA044428196BA282
:102F70004BA1FBF725FA0444281974A248A1FBF7DA
:102F80001FFA044428197EA245A1FBF719FA04444C
:102F900028198BA242A1FBF713FA0444281998A21E
:102FA0003FA1FBF70DFA04442819A2A23CA1FBF7AC
:102FB00007FA0444ACA0009028190BABAFA2BAA149
:102FC000FBF7FEF904442819B94A35A1FBF7F8F9D3
:102FD00004442819B74A32A1FBF7F2F9044428192E
:102FE000B54A2FA1FBF7ECF904442819B3A22CA190
:102FF000FBF7E6F9044400202855334622462946CB
:103000004046009700F076F981462946002015F0E9
:1030100025FD48461DB0BDE8F0830000253034583A
:10302000253031582D253031582D253034582D2557
:103030003034582D253034582D253034582D253036
:103040003458253034582530345800003136343463
:10305000352D362D643638612D316464322D313191
:1030600062322D613130352D3031303230333034F1
:1030700030353036000000003C3F786D6C207665BE
:103080007273696F6E3D22312E302220656E636F40
:1030900064696E673D225554462D38223F3E0A0032
:1030A00025730000C4990308786D6C6E733A534F12
:1030B00041502D454E433D22687474703A2F2F774E
:1030C00077772E77332E6F72672F323030332F3071
:1030D000352F736F61702D656E636F64696E672243
:1030E00020000000786D6C6E733A7873693D226839
:1030F0007474703A2F2F7777772E77332E6F72672D
:103100002F323030312F584D4C536368656D612D2F
:10311000696E7374616E636522200000786D6C6E59
:10312000733A7873643D22687474703A2F2F7777FE
:10313000772E77332E6F72672F323030312F584D04
:103140004C536368656D612220000000786D6C6EE1
:10315000733A786F703D22687474703A2F2F7777C6
:10316000772E77332E6F72672F323030342F30380E
:103170002F786F702F696E636C7564652220000074
:10318000786D6C6E733A7773613D22687474703A2F
:103190002F2F736368656D61732E786D6C736F612B
:1031A000702E6F72672F77732F323030342F303894
:1031B0002F61646472657373696E6722200000007A
:1031C000786D6C6E733A746E733D22687474703AE5
:1031D0002F2F736368656D61732E786D6C736F61EB
:1031E000702E6F72672F77732F323030352F303457
:1031F0002F646973636F7665727922200000000086
:10320000786D6C6E733A646E3D22687474703A2FF8
:103210002F7777772E6F6E7669662E6F72672F76AF
:10322000657231302F6E6574776F726B2F777364B0
:103230006C222000786D6C6E733A777361353D2295
:10324000687474703A2F2F7777772E77332E6F72DA
:10325000672F323030352F30382F616464726573D8
:1032600073696E67223E00003C2F7773613A4D65AB
:10327000737361676549443E000000003C534F4151
:10328000502D454E563A4865616465723E3C7773F1
:10329000613A4D65737361676549443E75726E3A74
:1032A000757569643A000000257325732573000065
:1032B000849A0308149A0308E49A03083C2F746E56
:1032C000733A556E697669657750726F62653E3CF8
:1032D0002F534F41502D454E563A426F64793E3C34
:1032E0002F534F41502D454E563A456E76656C6FC3
:1032F00070653E002DE9F04387B005460E4617463F
:103300001C46DDF838904FF0000800200390049030
:103310000590069002208DF80D001FFA89F014F038
:10332000B0FAADF80E00204611F000F9049010201C
:1033300003A900233A46CDE900103146284614F08F
:103340005BFD8046404607B0BDE8F0832DE9F041C3
:1033500080460025764890F8680030B1012832D0C8
:10336000022878D0032875D1A3E049F29C01404699
:10337000FFF7FCFB05462DBB00241DE049F29C0233
:103380006CA14046FEF724FD64230022114610463E
:1033900001F034F8002605E000214046FFF7B4FCB8
:1033A000701CC6B20A2EF7DB6423002211461046B9
:1033B00001F024F8601CC4B2012CDFDB01205C4961
:1033C00081F86800AFE000243CE05E4830F814105B
:1033D0004046FFF7CBFB0546002D31D100262DE0FE
:1033E000584830F8140041F2BA31884207D15548A4
:1033F00030F8142054A14046FDF7E0FC06E05148A7
:1034000030F8142054A14046FDF7D8FC6423002274
:103410001146104600F0F2FF002705E0012140466A
:10342000FFF772FC781CC7B20A2FF7DB6423002277
:103430001146104600F0E2FF701CC6B2012ECFDB31
:10344000601CC4B2042CC0DB0220394981F868003A
:1034500069E000E05BE040F676614046FFF786FBFE
:1034600005460DBB00241DE040F6766236A14046BD
:10347000FFF7CCFC642300221146104600F0BEFF8B
:10348000002605E002214046FFF73EFC701CC6B254
:103490000A2EF7DB642300221146104600F0AEFF2F
:1034A000601CC4B2012CDFDB0320214981F86800D5
:1034B00039E040F676614046FFF758FB05460DBB04
:1034C00000241DE040F676621AA14046FFF79EFCFC
:1034D000642300221146104600F090FF002605E00C
:1034E00003214046FFF710FC701CC6B20A2EF7DB22
:1034F000642300221146104600F080FF601CC4B215
:10350000012CDFDB04200A4981F868000BE0084841
:10351000007820F00100064908700846007840F065
:103520008000087000BF00BF0020BDE8F0810000EF
:10353000744D01203233392E3235352E3235352E49
:1035400032353000CE0300203235352E3235352E5F
:103550003235352E323535003233392E3235352E6F
:103560003235352E323531002DE9F04105460E4613
:10357000144600271148007818B112202070BDE8C9
:10358000F0812878012808D0022807D0032802D02B
:10359000042804D100E000BF00BF00BF02E001200A
:1035A0002070ECE700BFFAF79BFE07466E613846D5
:1035B000FAF79AFE0020207000BFE0E7ED0100203E
:1035C00010B500F017F801F037FA01F05FFA01F0DA
:1035D0007FFA01F001FA01F0C1F901F013FB01F0EB
:1035E0003DFB01F0B5FA01F0DBFA00F0D7FF00F087
:1035F00007F810BD002001490880704738020020FC
:103600007047000006480078012808D10548007876
:10361000FF2804D203480078401C02490870704714
:10362000FA010020ED01002010B500241A480078AE
:10363000012830D1FAF754FE04461848007820B12A
:1036400016480078401E1549087014480078F8B9EB
:1036500013480078E0B901F063FB12481249097879
:1036600050F82100114908600F4800781049097886
:1036700088420DD00D480068806B401C0B490968DA
:1036800088630C480068401C0A490860FAF748FE45
:103690002046FAF729FE10BDFA010020ED010020B6
:1036A000EE010020642F0120F0010020080200201C
:1036B000EF010020D40100202DE9F04106460F461D
:1036C0004FF000082048007810B10020BDE8F081DC
:1036D000FAF706FE80461D480468006820B11B48C2
:1036E00000684068194908604046FAF7FDFDFCB1E2
:1036F000FAF7F6FD804616480568D5B100680068FF
:10370000134908604046FAF7EFFD6E6006EB87004C
:10371000A860EE602E61AF820020E8820220207057
:103720000020208165600BA06061204601F008F94F
:1037300008E0064800686060044804604046FAF704
:10374000D3FD00242046C1E7ED010020D801002070
:10375000180200203F0000002DE9F047044689468A
:1037600015464FF0000A2078022804D00120287066
:103770002046BDE8F0873548007818B10F20287042
:103780002046F6E7FAF7ACFD8246A07A10B14FF07A
:10379000010801E04FF00008B9F1000F03D0B9F1C2
:1037A000010F49D121E0B8F1000F17D128A06061C5
:1037B000666828480068306026480660002020704F
:1037C000254800686060002020812348046050463E
:1037D000FAF78AFD00202870002705E05046FAF726
:1037E00083FD4920287027462DE005E000230422B0
:1037F0001946204601F00EF8A07A0028F6D114A050
:1038000060616668134800683060124806600020F6
:103810002070114800686060002020810E4804601C
:103820005046FAF761FDB8F1010F01D101F03EFAFF
:1038300000202870002706E05046FAF755FD0720C3
:103840002870274600BF00BF384692E7ED010020F0
:103850003F00000018020020D80100202DE9F047A9
:103860000746884615464FF000093878022804D0EC
:10387000012028700020BDE8F0873C48007818B18E
:10388000022028700020F6E73948007818B10D2092
:1038900028700020EFE7FAF723FD81467C68E08A74
:1038A00098B12169081D20610E68E08A401EE082FF
:1038B000A1682069884201D1606820614846FAF712
:1038C00013FD002028703046D5E72A48006890F89C
:1038D000300040F004002749096881F830000020DA
:1038E0002449096881F8310022480068C0F82C801A
:1038F000384600F0E7FF4846FAF7F6FC01F0D6F943
:10390000FAF7EEFC81461B48006890F8310020B1C0
:1039100001280DD002280AD105E016480068066A81
:10392000002028700DE000260E20287009E000BF5E
:1039300039461048006800F0AFFF00260A202870C2
:1039400000BF00BF00200B49096881F83000094919
:10395000096881F8310007490968C86105490968A3
:1039600008624846FAF7C0FC304684E7ED010020C3
:10397000EE010020000200202DE9F04105460E4630
:1039800000272878022802D00120BDE8F081FAF74C
:10399000A7FC0746A87A60B10023042231462846D6
:1039A00000F038FF3846FAF79FFC01F07FF900205D
:1039B000EBE76C68E08AA18A884204DB3846FAF7B4
:1039C00093FC1E20E1E7E168081DE0600E60E08ADC
:1039D000401CE082D4E90210884201D16068E060B6
:1039E0003846FAF781FC0020CFE72DE9F04705467D
:1039F0000C464FF0000A2878022802D00120BDE8CA
:103A0000F087FAF76DFC8246A87A207405F10B085E
:103A100004F10809002705E018F8010B09F8010B6B
:103A2000781CC7B2082FF7D36E68F08A18B13069D6
:103A30000068206001E000202060F08AA080B08A49
:103A4000E0805046FAF750FC0020D8E710B500247B
:103A50000B480078012811D1FAF742FC04460948C6
:103A6000007840B908480078FF2804D2064800785A
:103A7000401C054908702046FAF736FC10BD0000CE
:103A8000FA010020ED010020EE01002010B5002415
:103A900013480078012821D1FAF722FC0446114886
:103AA0000078C0B10F480078401E0E4908700846E3
:103AB000007860B90C48007828B92046FAF714FC61
:103AC00001F0F4F80AE02046FAF70EFC06E0204682
